:100000000C9446000C945D000C945D000C945D0013
:100010000C945D000C945D000C945D000C945D00EC
:100020000C945D000C945D000C945D000C945D00DC
:100030000C945D000C945D000C945D000C945D00CC
:100040000C945D000C945D000C945D000C945D00BC
:100050000C945D000C945D000C945D000C945D00AC
:100060000C945D000C945D000C945D000C945D009C
:100070000C945D000C945D000C945D000C945D008C
:100080000C945D000C945D000C945D0011241FBE67
:10009000CFEFD0E4DEBFCDBF11E0A0E0B1E0EAE1F8
:1000A000F1E000E00BBF02C007900D92AE30B10747
:1000B000D9F70E9470000C948B000C940000CF9331
:1000C000C82F8A3019F48DE00E945F009091C00023
:1000D00095FFFCCFC093C60080E090E0CF910895DB
:1000E00011B88FEF82B914B885B987B918B830E064
:1000F00040E080E009C020B193B1213009F44F5FA6
:10010000913009F43F5F8F5F8830A8F3340F38B91E
:0A01100081E090E00895F894FFCF1D
:0E011A0000000002000000005F000000000076
:00000001FF
